:100000000C943B090C9457090C9457090C9457090C
:100010000C9457090C9457090C9457090C945709E0
:100020000C9457090C9457090C946D110C94C91138
:100030000C9457090C9457090C9457090C945709C0
:100040000C9457090C9457090C9457090C945709B0
:100050000C9457090C9457090C9457090C945709A0
:100060000C9457090C9457090C9457090C94570990
:100070000C9457090C9457090C9457090C94570980
:100080000C9457090C9457090C9457090C94570970
:100090000C9457090C9457090C9457090C94570960
:1000A0000C9457090C9457090C945709440E4C0EA4
:1000B000520E580E5E0E640E6A0E700E9F0EA10E4A
:1000C000A30EA50EA70EA90EAB0EAD0E0D0F0D0FB4
:1000D0004F0F0D0F0D0F0D0F000000000D0F6610DC
:1000E0000D0F0D0F0D0F0D0F0D0F661066100D0F7C
:1000F0000D0F00000000000000000D0F0D0F0D0F90
:100100000D0F0D0F6B100D0F0D0F0D0F0D0F0D0FB0
:10011000000000000D0F0D0F0D0F0D0F0D0F6B10D8
:100120000D0F0D0F0D0F0D0F0D0F0D0F0000000027
:100130000D0F0D0F0D0F0D0F0D0F0D0F0D0F0D0FDF
:100140000D0F0D0F0D0F0D0F000000000D0F0D0F07
:100150000D0F0D0F0D0F0D0F0D0F0D0F0D0F0D0FBF
:100160000D0F0D0F000000000D0F0D0F0D0F0D0FE7
:100170000D0F0D0F340F340F340F340F340F340FB5
:1001800000000000340F340F340F340F340F340FDD
:10019000340F340F340F340F340F00000000000010
:1001A0000000340F340F340F340F340F340F0D0FA1
:1001B0000D0F340F0D0F340F0000000066100D0FEF
:1001C0000D0F340F340F0D0F340F0D0F0D0F0D0FDA
:1001D0000D0F340F000000006610661066106610E8
:1001E00066100D0F340F340F340F340F340F340FEB
:1001F0000000000066106610661066100D0F0D0FEF
:10020000340F0D0F0D0F0D0F0D0F0D0F000000001F
:100210000D0F0D0F0D0F0D0F0D0F0D0F0000000036
:1002200000000000000000000000000000000000CE
:1002300000000000000000000000000000000000BE
:1002400000000000000000000000000000000000AE
:10025000000000000000000000000000000000009E
:10026000000000000000000000000000000000008E
:10027000000000000000000000000000000000007E
:10028000000000000000000000000000000000006E
:10029000000000000000000000000000000000005E
:1002A000000000000000000000000000000000004E
:1002B000000000000000000000000000000000003E
:1002C00000000000340F340F340F340F340F340F9C
:1002D00000000000340F340F340F340FDE10340FE1
:1002E000340F0D0F340F340F340F000000000000E6
:1002F0000000340F340F340F340F340F340F340F29
:10030000340F340F340F340F00000000340F340F5B
:10031000340F340F340F340F340F0D0F0D0F0D0F3A
:100320000D0F0D0F000000000D0F0D0F0D0F0D0F25
:100330000D0F340F340F340F340F340F340F340FCC
:1003400000000000340F0D0F66100D0F6610340F03
:10035000340F340F340F340F340F340F000000000B
:10036000340F340F340F340F340F340FE410000007
:10037000000000000000530F00000000000000001B
:10038000000000000000670F0000000000000000F7
:10039000510F0000000000000000000000000000FD
:1003A0000000650F0000000000004D0F4F0F00001F
:1003B00000000000000000000000610F630FDE106D
:1003C00000000000340F710F730F000000000000E8
:1003D000000000005D0F5F0FBF1000000000150F50
:1003E0006D0F6F0F00000000000000000000590FAB
:1003F0005B0F6B10000000000D0F690F6B0F00000A
:100400000000000000000000550F570F0000000022
:1004100000000000000000000000000000000000DC
:1004200000000000000000000000000000000000CC
:1004300000000000000000000000000000000000BC
:1004400000000000000000000000000000000000AC
:100750000000000000000000000000000D0F0D0F61
:100760004D0F0D0F0D0F0D0F0000000066106610ED
:100770000D0F0D0FBF100D0F0D0F661066100D0F32
:100780000D0F00000000000000000D0F0D0F0D0FF9
:100790000D0F0D0F6B100D0F0D0F0D0F0D0F0D0F1A
:1007A000000000000D0F0D0F0D0F0D0F0D0F6B1042
:1007B0000D0F0D0F0D0F0D0F0D0F0D0F0000000091
:1007C0000D0F0D0F0D0F0D0F0D0F0D0F0D0F0D0F49
:1007D0000D0F0D0F0D0F0D0F000000000D0F0D0F71
:1007E0000D0F0D0F0D0F0D0F0D0F0D0F0D0F0D0F29
:1007F0000D0F0D0F000000000D0F0D0F0D0F0D0F51
:100800000D0F0D0F340F340F340F340F340F340F1E
:1008100000000000340F340F340F340F340F340F46
:10082000340F340F340F340F340F00000000000079
:100830000000340F340F340F340F340F340FBE0F59
:10084000F60F340F4A10340F0000000066100D0F31
:100850000D0F340F340F340F340FA20FDA0F1210B4
:100860002E10340F0000000066106610661066102F
:100870006610340F340F340F340F340F340F340F2D
:10088000000000006610661066106610340F340F0A
:1008900000000D0F0D0F0D0F0D0F0D0F00000000CC
:1008A0000D0F0D0F0D0F0D0F0D0F0D0F00000000A0
:1008B0000000000000000000000000000000000038
:1008C0000000000000000000000000000000000028
:1008D0000000000000000000000000000000000018
:1008E0000000000000000000000000000000000008
:1008F00000000000000000000000000000000000F8
:1009000000000000000000000000000000000000E7
:1009100000000000000000000000000000000000D7
:1009200000000000000000000000000000000000C7
:100930000000000000000000E410000000000000C3
:1009400000000000000000000000000000000000A7
:1009500000000000340F340F340F340F340F340F05
:1009600000000000340F340F340F340FDE10340F4A
:10097000340F340F340F340F340F00000000000028
:100980000000340F340F340F340F340F340F340F92
:10099000340F340F340F340F00000000340F340FC5
:1009A000340F340F340F340F340F0D0F0D0F0D0FA4
:1009B0000D0F0D0F000000000D0F0D0F0D0F0D0F8F
:1009C0000D0F340F340F340F340F340F340F340F36
:1009D00000000000340F0D0F66100D0F6610340F6D
:1009E000340F340F340F340F340F340F0000000075
:1009F000340F340F340F340F340F340F0000000065
:100A000000000000000000000000000000000000E6
:100A100000000000000000000000000000000000D6
:100A200000000000000000000000000000000000C6
:100A300000000000000000000000000000000000B6
:100DE0000000000000000000000000004CE6012AA6
:100DF000E34C00009B9B2C28039BE01F302F31000D
:100E00000000005051524FE4E11D1B06071900007D
:100E1000100B363733E529041516170A00000E119A
:100E2000080C12342B141A09130500000D0F181C9E
:100E3000382E351E1F202122000023242526272D91
:100E400000000000000000000000000000000000A2
:100E50000000000000000000000000000000000092
:100E600000000000242F30000000000000000000FF
:100E70000000232627211E000000000000000000C3
:100E8000202F30250000003A3B3C3D3E00003F4013
:100E9000414243000000000000000000000000008C
:100EA0000000000000000000000000000000000042
:100EB0000000000000000000000000000000000032
:100EC0000000000000000000000000000000000022
:100ED0000000000000000000000000000000000012
:100EE0000000000000000000000000000000000002
:100EF00000000000000000000000000000000000F2
:100F000000000000000000000000000000000000E1
:100F10000000001E1F202122000023242526270078
:100F200000000000000000000038252D2E00000009
:100F300000000000000000000000000000000000B1
:100F400000000000000000000000000000000000A1
:100F50000000000000000000000000000000000091
:100F60000000000000000000000000000000000081
:100F70000000000000000000000000000000000071
:100F80000000000000000000000000000000000061
:100F90000000000000000000000000000000000051
:100FA0000000000000000000000000000000000041
:100FB0000000000000000000000000000000000031
:100FC0000000000000000000000000000000000021
:100FD0000000000000000000000000000000000011
:100FE0000000000000000000000000000000000001
:100FF00000000000000000000000000000000000F1
:1010000000000000000000000000000000000000E0
:1010100000000000000000000000000000000000D0
:1010200000000000000000000000000000000000C0
:1010300000000000000000000000000000000000B0
:1010400000000000000000000000000000000000A0
:101050000000000000000000000000000000000090
:101060000000000000000000000000000000000080
:101070000000000000000000000000000000000070
:101080000000000000000000000000000000000060
:101090000000000000000000000000000000000050
:1010A0000000000000000000000000000000000040
:1010B0000000000000000000000000000000000030
:1010C0000000000000000000000000000000000020
:1010D0000000000000000000000000000000000010
:1010E0000000000000000000000000000000000000
:1010F00000000000000000000000000000000000F0
:1011000000000000000000000000000000000000DF
:1011100000000000000000000000000000000000CF
:1011200000000000000000000000000000000000BF
:1011300000000000000100005C121200020000C963
:10114000113B00210000DB1109002200001D123FAD
:1011500000210100F411090022010004121900030A
:101160000000C5110401030904AB111802030904AE
:1011700073113636034500720067006F0044006F3C
:1011800000780020006500720067006F006E006F3D
:10119000006D006900630020006B0065007900624B
:1011A000006F006100720064000000180375006E9B
:1011B00000730070006500630069006600690065E7
:1011C00000640000000403090409023B000201005E
:1011D000C0320904000001030101000921110100CE
:1011E00001223F000705810308000A0904010001EC
:1011F00003000000092111010001221900070582E6
:101200000308000A050C0901A10185031501269CAC
:101210000219012A9C02751095018100C00501097F
:1012200006A10175019508050719E029E7150025B4
:10123000018102950175088103950575010508195D
:10124000012905910295017503910395067508150D
:101250000025680507190029688100C012010002F5
:1012600000000020501D286000010102000101C1A2
:101270000601C106000011241FBECFEFDAE0DEBF79
:10128000CDBF11E0A0E0B1E0E8EEF6E202C00590CB
:101290000D92A633B107D9F722E0A6E3B1E001C071
:1012A0001D92AB3EB207E1F7DCD00C9472130C94A4
:1012B000000020913601281778F030E0A901481B82
:1012C0005109CA01FA01EE0FFF1F8E0F9F1FFC018B
:1012D000EB55FD4F8081089580E0089520913601FF
:1012E000281778F030E0A901481B5109CA01FA011A
:1012F000EE0FFF1F8E0F9F1FFC01EB55FD4F8281EC
:10130000089580E00895E1E0F1E021E030E091917E
:10131000911117C0F901E050FF4F91E09083E091E7
:101320003601EF5FE0933601F0E0AF01440F551F47
:10133000E40FF51FEB55FD4F808321836283822FDD
:1013400008952F5F3F4F2431310509F780E008955C
:101350004091360191E0491708F43FC0292F30E051
:10136000F901EE0FFF1F2E0F3F1FF901EB55FD4F47
:101370002181281330C09417D0F4292F30E0D901EF
:101380001196BD01660F771FA60FB71FAB55BD4F56
:101390005C91F901EE0FFF1F2E0F3F1FF901EB5576
:1013A000FD4F508311962C9121839F5FE4CFE42F52
:1013B000F0E09F01220F331FE20FF31FEB55FD4FAB
:1013C00010821182E82FF0E0E050FF4F1082415070
:1013D0004093360108959F5FBECF08952091E302A8
:1013E0009091A302E091A4028091E602222381F071
:1013F00024E5E29FF00111242EE0929FE00DF11D03
:101400001124E80FF11DEE0FFF1FE45AF84F0FC033
:1014100024E5E29FF00111242EE0929FE00DF11DE2
:101420001124E80FF11DEE0FFF1FE453FF4F8591CC
:101430009491FC01892B09F0099580913601282FA0
:1014400030E0F901EE0FFF1F2E0F3F1FF901EB55A2
:10145000FD4F9281923021F490914E02911178CFFC
:101460000895ECD08CE090E0909389008093880000
:1014700090938B0080938A0090938D0080938C00D2
:10148000259A269A279AD7D6EDD68823E9F38FE7AF
:1014900090E090938900809388002FE732E440E148
:1014A000215030404040E1F700C0000090938B0095
:1014B00080938A002FE732E440E1215030404040E1
:1014C000E1F700C0000090938D0080938C002FE71F
:1014D00032E440E1215030404040E1F700C00000DC
:1014E0002598269827989093890080938800909358
:1014F0008B0080938A0090938D0080938C008EE007
:10150000F82E8091140190911501209116013091CF
:1015100017013093150120931401909317018093C4
:10152000160197D010924D0280914D02863008F03E
:1015300062C01092E402D090E402E0904D028DE08F
:101540008D1508F454C0CD2DD0E0E0911601F09136
:101550001701FE9CC0011124E80FF91FEC0FFD1FBD
:1015600020812093E302E0911401F0911501E80F2E
:10157000F91FEC0FFD1F30813093E102231789F131
:101580008C01015B1D4F222351F080E092DE80939D
:10159000A402C00FD11F88831092E2020DC0F8018F
:1015A000EC0FFD1F20812093A402895C9E4FC80F81
:1015B000D91F88818093E202E092A302D092E602D2
:1015C0001092E5020BDFE0914D028091E402FE9E55
:1015D000F0011124E95CFE4FE80FF11D8091E20259
:1015E00080838091E4028F5F8093E402A4CFE39430
:1015F000E0924D0299CF39D60E944E138FE19EE4BE
:101600000197F1F700C000008091430280FF02C003
:10161000259A01C025988091430281FF02C0269A35
:1016200001C026988091430282FF02C0279A01C020
:101630002798809143028091430263CF1AD0811191
:1016400004C014D2811103C0089581E0089582E09E
:101650000895CF93DF93EC01D5D0811106C0CE0160
:1016600030D2882319F082E001C081E0DF91CF9170
:101670000895E1E6F0E080E88083108256985E9855
:1016800024982C9825982698279889EA809380009A
:1016900089E0809381008BD23F9885E08A95F1F7AD
:1016A0000000579885E08A95F1F70000549885E08E
:1016B0008A95F1F70000559885E08A95F1F70000CA
:1016C0006E9885E08A95F1F70000479A85E08A9543
:1016D000F1F700005F9A85E08A95F1F700005C9AC7
:1016E00085E08A95F1F700005D9A85E08A95F1F72B
:1016F0000000769A85E08A95F1F70000879885E0EA
:101700008A95F1F70000869885E08A95F1F7000048
:10171000859885E08A95F1F70000849885E08A95A0
:10172000F1F70000819885E08A95F1F70000809834
:1017300085E08A95F1F70000209885E08A95F1F719
:101740000000219885E08A95F1F70000229885E055
:101750008A95F1F70000239885E08A95F1F700005B
:10176000529885E08A95F1F70000539885E08A95B4
:10177000F1F700003E9885E08A95F1F700008F9818
:1017800085E08A95F1F700008E9885E08A95F1F75B
:1017900000008D9885E08A95F1F700008C9885E02F
:1017A0008A95F1F70000899885E08A95F1F70000A5
:1017B000889885E08A95F1F70000289A85E08A9557
:1017C000F1F70000299A85E08A95F1F700002A9A3E
:1017D00085E08A95F1F700002B9A85E08A95F1F76C
:1017E00000005A9A85E08A95F1F700005B9A85E03F
:1017F0008A95F1F70000469A85E08A95F1F7000096
:1018000080E00895FC01879A85E08A95F1F7000051
:1018100083B1817091E08927878383B18695817038
:101820008927808783B182FB882780F98927818770
:1018300083B183FB882780F98927828789B182FB5E
:10184000882780F98927838789B183FB882780F9D6
:101850008927848786B186FB882780F98927858731
:10186000879885E08A95F1F70000869A85E08A9549
:10187000F1F7000083B181708927858B83B186954C
:1018800081708927868B83B182FB882780F989271D
:10189000878B83B183FB882780F98927808F89B163
:1018A00082FB882780F98927818F89B183FB88276C
:1018B00080F98927828F86B186FB882780F989275E
:1018C000838F869885E08A95F1F70000859A85E0F8
:1018D0008A95F1F7000083B18170892783A383B1D2
:1018E00086958170892784A383B182FB882780F93C
:1018F000892785A383B183FB882780F9892786A35D
:1019000089B182FB882780F9892787A389B183FB66
:10191000882780F9892780A786B186FB882780F9E8
:10192000892781A7859885E08A95F1F70000849A38
:1019300085E08A95F1F7000083B18170892781AB3A
:1019400083B186958170892782AB83B182FB88271A
:1019500080F9892783AB83B183FB882780F98927A6
:1019600084AB89B182FB882780F9892785AB89B14F
:1019700083FB882780F9892786AB86B186FB882779
:1019800080F9892787AB849885E08A95F1F7000074
:10199000819A85E08A95F1F7000083B181708927EB
:1019A00087AF83B1DF01A05CBF4F86958170892727
:1019B0008C9383B1119682FB882780F989278C93B9
:1019C00083B1119683FB882780F989278C9389B18D
:1019D000119682FB882780F989278C9389B111960B
:1019E00083FB882780F989278C9386B1119686FB23
:1019F000882780F989278C93819885E08A95F1F76B
:101A00000000809A85E08A95F1F7000083B1EA5BD7
:101A1000FF4F81708927878383B1869581708927DD
:101A2000808783B182FB882780F98927818783B1EA
:101A300083FB882780F98927828789B182FB8827E1
:101A400080F98927838789B183FB882780F98927D3
:101A5000848786B186FB882780F9982795878098A8
:101A600085E08A95F1F7000080E00895CF93A8D033
:101A700080E4C5D0C82F811120C080E0C0D08FEF96
:101A8000BED080ECBCD0B3D09BD080E4B8D0C82FFF
:101A9000811113C08CE0B3D08FEFB1D080ECAFD008
:101AA000A6D08ED080E4ABD0C82F811106C084E1CF
:101AB000A6D08FEFA4D08FEFA2D099D08C2FCF914A
:101AC0000895BF92CF92DF92EF92FF920F931F93F0
:101AD000CF93DF931F92CDB7DEB77C01C7DFB82E5F
:101AE000882379F0C70126E0AC01495F5F4FFC0114
:101AF0001192E417F507E1F721500E962111F4CF6A
:101B00004AC0870185E0E82EF12CCC24C394D12C67
:101B100057D080E474D083E172D0C6010E2C01C08E
:101B2000880F0A94EAF780956AD061D049D080E4A2
:101B300066D082E164D044D081E461D0CE010196C8
:101B40007CD055D0498150E0F80120E030E0CA0156
:101B5000022E02C0959587950A94E2F78170992725
:101B600061E08627817081932F5F3F4F27303105D9
:101B700071F781E0E81AF108025F1F4F6FEFE61678
:101B8000F60609F0C5CF1CD080E439D083E137D008
:101B90008FEF35D02CD08B2D0F90DF91CF911F91EF
:101BA0000F91FF90EF90DF90CF90BF900895E9EBF9
:101BB000F0E080818C7F808388E48093B800089572
:101BC00084EA8093BC008091BC0087FFFCCF8091A9
:101BD000B900887F883049F08091B900887F8031D2
:101BE00021F08091B900887F089580E0089584E90C
:101BF0008093BC008091BC0084FDFCCF089580934D
:101C0000BB0084E88093BC008091BC0087FFFCCFC0
:101C10008091B900887F883171F08091B900887F08
:101C2000883249F08091B900887F803421F080911A
:101C3000B900887F089580E0089524EC2093BC00CB
:101C40002091BC0027FFFCCF2091BB00FC0120832A
:101C50008091B900887F803521F08091B900887F1C
:101C6000089580E00895962F662309F45AC0462F00
:101C700050E0FA01E05EF109E830F105B8F5EA5A02
:101C8000FF4F90914B0228C5882311F0916001C04D
:101C90009E7F90934B020895882311F09260F9CFB4
:101CA0009D7FF7CF882311F09460F3CF9B7FF1CF16
:101CB000882311F09860EDCF977FEBCF882311F048
:101CC0009061E7CF9F7EE5CF882311F09062E1CF4E
:101CD0009F7DDFCF882311F09064DBCF9F7BD9CF2E
:101CE000882311F09068D5CF9F77D3CFE5E4F2E059
:101CF00020E030E04081882339F041110CC0F90127
:101D0000EB5BFD4F90830895941305C0F901EB5BE5
:101D1000FD4F108208952F5F3F4F319626303105D9
:101D200049F70895482F50E0FA01E05EF109E830E4
:101D3000F105A8F4E25AFF4F90914B02CDC490FDFB
:101D400019C091FD17C092FD15C093FD13C094FDFD
:101D500011C095FD0FC096FD0DC097FD0BC0E5E4C9
:101D6000F2E09191891731F092E0EB34F907C9F76D
:101D700080E0089581E00895CF93DF93C82FD0E0ED
:101D8000CD5CDD4F8881882311F0E2DA1882DF9183
:101D9000CF910895CF93DF93D82F8091A302E09144
:101DA000A40294E5E99FF00111249EE0899FE00DD3
:101DB000F11D11248091E602E80FF11DE451F24F6C
:101DC000C4918D2FD9DF80E089DA8150823018F4F8
:101DD00080E06FDABDDA60E08C2F95DAED2FF0E06D
:101DE000ED5CFD4F8083DF91CF9108958091A30238
:101DF000E091A40294E5E99FF00111249EE0899FFF
:101E0000E00DF11D11248091E602E80FF11DE4516F
:101E1000F24F64918091E30226CF8091E20281111A
:101E200003C081E080934E02E1CFCF938091A30263
:101E3000E091A40294E5E99FF00111249EE0899FBE
:101E4000E00DF11D11248091E602E80FF11DE4512F
:101E5000F24FC4918C2F66DF6C2F882311F080E045
:101E600001C081E0CF91FFCE81E08093E2028091BA
:101E7000E5028F5F8093E5021CDA8093A402E09173
:101E8000A3029091E6022EE0E29FF0011124E15BB3
:101E9000FD4FE90FF11D8083A1CA81E07BCF81E076
:101EA0006BCF82E077CF82E067CF83E073CF83E0B0
:101EB00063CF84E06FCF84E05FCF85E06BCF85E0B8
:101EC0005BCF86E067CF86E057CF87E063CF87E0C0
:101ED00053CF88E05FCF88E04FCF89E05BCF89E0C8
:101EE0004BCF8AE057CF8AE047CF63E881E0BBDE83
:101EF000BCD163E880E0B7DEB8C1EF92FF920F93E8
:101F00001F93CF93DF938C0162EE81E0ACDEADD105
:101F1000E8010C5F1F4F7E01699181E0A4DEA5D12D
:101F2000F701608180E09FDEA0D1C017D10799F74B
:101F300062EE80E098DEDF91CF911F910F91FF90CC
:101F4000EF9093C1CF93DF9300D000D0CDB7DEB731
:101F500080911A0190911B01A0911C01B0911D016B
:101F600089839A83AB83BC83CE010196C6DF0F9031
:101F70000F900F900F90DF91CF910895CF93DF9343
:101F800000D000D0CDB7DEB780911E0190911F0127
:101F9000A0912001B091210189839A83AB83BC83F6
:101FA000CE010196AADF0F900F900F900F90DF9156
:101FB000CF910895CF93DF9300D000D0CDB7DEB797
:101FC0008091220190912301A0912401B0912501DB
:101FD00089839A83AB83BC83CE0101968EDF0F90F9
:101FE0000F900F900F90DF91CF910895CF93DF93D3
:101FF00000D000D0CDB7DEB78091260190912701A7
:10200000A0912801B091290189839A83AB83BC8375
:10201000CE01019672DF0F900F900F900F90DF911D
:10202000CF910895CF93DF9300D000D0CDB7DEB726
:1020300080912A0190912B01A0912C01B0912D014A
:1020400089839A83AB83BC83CE01019656DF0F90C0
:102050000F900F900F90DF91CF910895CF93DF9362
:1020600000D000D0CDB7DEB780912E0190912F0126
:10207000A0913001B091310189839A83AB83BC83F5
:10208000CE0101963ADF0F900F900F900F90DF91E5
:10209000CF910895CF93DF9300D000D0CDB7DEB7B6
:1020A0008091320190913301A0913401B0913501BA
:1020B00089839A83AB83BC83CE0101961EDF0F9088
:1020C0000F900F900F90DF91CF91089561EE809166
:1020D000E302C9DDA2CE8091A302E091A40294E5BF
:1020E000E99FF00111249EE0899FE00DF11D11246C
:1020F0008091E602E80FF11DE451F24F6491809166
:10210000E302811105C090914002915090934002EA
:10211000AADD80914002813041F58091E30288235D
:1021200069F181EEFFDD80933F0285EEFBDD809358
:102130003E0261EE80E097DD65EE80E094DD69E3CC
:1021400081E091DD92D069E380E08DDD8ED08091D9
:102150003F02882319F061EE81E085DD80913E0227
:10216000882319F065EE81E07EDD8091E30288230B
:1021700029F0809140028F5F809340020895CF93B1
:102180008091A302E091A40294E5E99FF00111245B
:102190009EE0899FE00DF11D11248091E602E80F79
:1021A000F11DE451F24FC49180914102D1D860E019
:1021B0008C2FA9D880934102CF9197CE8091410274
:1021C000C7D81092410291CEF89481E08093E0004C
:1021D00080E28093D800E9ECF0E010828FE19EE489
:1021E0000197F1F700C000001DBA109268001CBCF6
:1021F00010BE1FBA10927A0010926E0010926F00FB
:1022000010927100109272001082ECEBF0E01082DC
:1022100014B817B81AB81DB810BA108215B818B883
:102220001BB81EB811BA0C94003F08958091E800C5
:1022300080FFFCCF089581E08093D70080EA8093EF
:10224000D80082E189BD09B400FEFDCF80E980930A
:10225000D8001092E00010924C028CE08093E200D3
:102260007894089580914C02089580914C028111D8
:1022700002C08FEF08958FB7F89491E09093E90032
:102280009091E4009E5C21E03091E80035FD0EC0A5
:102290008FBF80914C02882361F38091E4009817EE
:1022A00041F38FB7F8942093E900EECF90914B0261
:1022B0009093F1001092F100E5E4F2E09191909397
:1022C000F10092E0EB34F907C9F79AE39093E80044
:1022D000109244028FBF80E008951F920F920FB6B4
:1022E0000F9211248F939F93EF93FF938091E100BE
:1022F0001092E10083FF0FC01092E90091E09093EB
:10230000EB001092EC0092E29093ED0098E0909335
:10231000F00010924C0282FF33C080914C0288235F
:1023200079F180911801882359F1809142028F5FE1
:1023300080934202837021F581E08093E9008091CF
:10234000E80085FF1DC0809144028F5F80934402A6
:1023500090911801891314C01092440280914B028D
:102360008093F1001092F100E5E4F2E08191809316
:10237000F10082E0EB34F807C9F78AE38093E800C4
:10238000FF91EF919F918F910F900FBE0F901F9033
:1023900018951F920F920FB60F921124FF920F9370
:1023A0001F932F933F934F935F936F937F938F93DD
:1023B0009F93AF93BF93CF93DF93EF93FF931092CD
:1023C000E9008091E80083FF23C1F090F100809143
:1023D000F100C091F1009091F100D0E0D92B009173
:1023E000F1009091F10010E0192B2091F100609123
:1023F000F10092EF9093E800863009F049C084E341
:1024000091E143E751E1FC01A591B491CA17DB07C3
:10241000D9F4FC013296A591B4910A171B07A1F4D7
:10242000FC01349645915491FC013696849130E03C
:10243000362B2F3F310519F010F02FEF30E0281721
:1024400008F4822F3EEF0CC0079648175907D9F6BB
:10245000DFC0490F511D891B3093E8008823A9F084
:102460009091E800292F2570D9F392FDD4C0982FC0
:10247000813208F090E2FA01292F222351F364916E
:102480006093F10021503196F8CF903249F3C3C0E8
:10249000853041F48EEF8093E800C8DEC068C093B9
:1024A000E300B9C0893039F5F1106AC0C0934C021D
:1024B0008EEF8093E80041E08EE692E14093E900E0
:1024C0009C012F5F3F4FFC0154915093EB0055232B
:1024D00059F0F90124912093EC009C012D5F3F4FAE
:1024E0003196E491E093ED004F5F453011F0C90162
:1024F000E5CF8EE140C0883039F4F0E8FF1240C0EB
:1025000095DE80914C0261C0811114C08FDE82E89B
:10251000F8120AC00093E9008091EB0085FB882740
:1025200080F91092E90001C080E08093F1001092E0
:10253000F1006AC0982F9D7F913011F592E0F91259
:102540001FC0CD2B09F064C00F779FEF900F943020
:1025500008F05EC09EEF9093E8000093E90083309E
:1025600009F456C089E18093EB0081E090E001C05E
:10257000880F0A95EAF78093EA001092EA004BC0B0
:10258000012B09F045C0E1EAFE1222C0813091F42E
:102590004DDE80914B028093F1001092F100E5E452
:1025A000F2E08BE492E021912093F1008E179F07D7
:1025B000D1F72AC0823021F439DE8091180105C09C
:1025C000833031F533DE809119018093F1001CC016
:1025D000F1E2FF121DC0893061F48091E80082FFB2
:1025E000FCCF8091F100809343028BEF8093E80051
:1025F0000BC08A3029F4D09318011092440204C011
:102600008B3031F4C09319018EEF8093E80003C042
:1026100081E28093EB00FF91EF91DF91CF91BF9129
:10262000AF919F918F917F916F915F914F913F916A
:102630002F911F910F91FF900F900FBE0F901F9041
:10264000189590914C02911102C08FEF08959FB799
:10265000F89422E02093E9002091E4002E5C32E01F
:102660004091E80045FD0EC09FBF90914C02992318
:1026700061F39091E400291741F39FB7F8943093E8
:10268000E900EECF8093F1006093F1007093F100C8
:102690008AE38093E8009FBF80E008956091E7029D
:1026A0007091E8028091E9029091EA026817790737
:1026B00081F083E0C6DF082E000C990B009759F4D7
:1026C0002091E7023091E8023093EA022093E90278
:1026D000089580E090E00895EE0FFF1F0590F491BB
:0826E000E02D0994F894FFCFEE
:1026E80001000000000000000000000000000000E1
:1026F800000000008B01DF017D01625A5A606259B7
:10270800615E625A5C5E625A595C625A5A5B625AEE
:062718005D5A625A5A628C
:00000001FF
