:100000000C942B090C9447090C9447090C9447094C
:100010000C9447090C9447090C9447090C94470920
:100020000C9447090C9447090C94BB110C942712AB
:100030000C9447090C9447090C9447090C94470900
:100040000C9447090C9447090C9447090C944709F0
:100050000C9447090C9447090C9447090C944709E0
:100060000C9447090C9447090C9447090C944709D0
:100070000C9447090C9447090C9447090C944709C0
:100080000C9447090C9447090C9447090C944709B0
:100090000C9447090C9447090C9447090C944709A0
:1000A0000C9447090C9447090C944709004D4C2ABD
:1000B0004AE0E2E6E44B2C284E00E33531504F0095
:1000C0000000005051524FE7E11D1B0619050000CA
:1000D0001110363738E52B041607090A00000B0DFE
:1000E0000E0F333431141A08151700001C180C12A7
:1000F00013302E1E1F202122000023242526272D09
:1001000000000000000000000000000000000000EF
:10011000000000000000000000000000005E5F60C2
:10012000612E0000255A5B5C5D7F0033382D623301
:100130000000315926272E81002F302F300000007B
:10014000002D3637B480003A3B3C3D3E00003F4036
:100150004142436600000000000000000000000073
:10016000000000000000000000000000000000008F
:10017000000000000000000000000000000000007F
:10018000000000000000000000000000000000006F
:10019000000000000000000000000000000000005F
:1001A000000000000000000000000000000000004F
:1001B0000000620000000049000000000000000094
:1001C00000375800000000000000000000595A5B92
:1001D00058000000000000000000005C5D5E570059
:1001E0000000000000000000005F60615600000099
:1001F00000000000000000036754550000000000EC
:1002000000000000000000000000000000000000EE
:1002100000000000000000000000000000000000DE
:1002200000000000000000000000000000000000CE
:1002300000000000000000000000000000000000BE
:1002400000000000000000000000000000000000AE
:10025000000000000000000000000000000000009E
:10026000000000000000000000000000000000008E
:10027000000000000000000000000000000000007E
:10028000000000000000000000000000000000006E
:10029000000000000000000000000000000000005E
:1002A000000000000000000000000000000000004E
:1002B000000000000000000000000000000000003E
:1002C000000000000000000000000000000000002E
:1002D000000000000000000000000000000000001E
:1002E000000000000000000000000000000000000E
:1002F00000000000000000000000000000000000FE
:1003000000000000000000000000000000000000ED
:1003100000000000000000000000000000000000DD
:1003200000000000000000000000000000000000CD
:1003300000000000000000000000000000000000BD
:1003400000000000000000000000000000000000AD
:10035000000000000000000000000000000000009D
:10036000000000000000000000000000000000008D
:10037000000000000000000000000000000000007D
:10038000000000000000000000000000000000006D
:10039000000000000000000000000000000000005D
:1003A000000000000000000000000000000000004D
:1003B000000000000000000000000000000000003D
:1003C000000000000000000000000000000000002D
:1003D000000000000000000000000000000000001D
:1003E000000000000000000000000000000000000D
:1003F00000000000000097109710971097109710BA
:10040000971097109710971097109710971000005B
:100410009710971097109710971000000000000099
:10042000000097109710971097109710FE109710D4
:1004300097109710971097100000000097109710D2
:10044000971097109710FE1097109710971097100D
:1004500097109710000000009710971097109710B2
:100460009710971097109710971097109710971054
:100470000000000097109710971097109710971092
:100480009710971097109710971097100000000082
:1004900097109710971097109710971000003D1025
:1004A0003D103D103D103D103D103D103D103D10E4
:1004B0003D103D103D1000003D103D103D103D1021
:1004C0003D103D103D103D103D103D103D103D10C4
:1004D0003D103D103D109710971097109710541134
:1004E0000000000054119710971097109710971064
:1004F0003D109710971097109710541100000000AE
:100500009710971054115411541197103D10541115
:100510005411971097100000000000000000971081
:1005200054115411971097100000971097109710BE
:1005300097109710000000009710971097109710D1
:10054000971097100000000000000000000000005D
:10055000000000000000000000000000000000009B
:10056000000000000000000000000000000000008B
:10057000000000000000000000000000000000007B
:10058000000000000000000000000000000000006B
:10059000000000000000000000000000000000005B
:1005A000000000000000000000000000000000004B
:1005B000000000000000000000000000000000003B
:1005C000000000000000000000000000000000002B
:1005D0009F1000000000000000000000000000006C
:1005E00000000000000000000000000000003D10BE
:1005F0003D103D103D103D103D103D103D103D1093
:1006000097103D103D1000003D1097103D103D101B
:100610003D103D103D103D103D103D103D10971018
:1006200097103D103D103D103D103D103D103D1008
:10063000000000003D1097109710971097103D1084
:100640003D103D103D103D103D103D1000000000DC
:100650003D1097109710971097103D103D103D10CA
:100660003D103D103D103D10000000003D10971062
:100670009710971097103D103D103D103D103D1004
:100680003D103D10000000003D10D710971097104E
:1006900097103D1000000000000000000000000066
:1006A000000000000000000000000000000000004A
:1006B000000000000000000000000000000000003A
:1006C000000000000000000000000000000000002A
:1006D000000000000000000000000000000000001A
:100A80000000000000009710971097109710971023
:100A900097109710971097109710971097100000C5
:100AA0009710971097109710971000000000000003
:100AB000000097109710971097109710FE1097103E
:100AC000971097109710971000000000971097103C
:100AD000971097109710FE10971097109710971077
:100AE000971097100000000097109710971097101C
:100AF00097109710971097109710971097109710BE
:100B000000000000971097109710971097109710FB
:100B100097109710971097109710971000000000EB
:100B200097109710971097109710971000003D108E
:100B30003D103D103D103D103D103D103D103D104D
:100B40003D103D103D1000003D103D103D103D108A
:100B50003D103D103D103D103D103D103D103D102D
:100B60003D103D103D10971097109710971054119D
:100B700000000000541197109710971097109710CD
:100B80003D10971097109710971054110000000017
:100B90009710971054115411541197103D1054117F
:100BA00054119710971000000000000000009710EB
:100BB0005411541197109710000097109710971028
:100BC000971097100000000097109710971097103B
:100BD00097109710000000000000000000000000C7
:100BE0000000000000000000000000000000000005
:100BF00000000000000000000000000000000000F5
:100C000000000000000000000000000000000000E4
:100C100000000000000000000000000000000000D4
:100C200000000000000000000000000000000000C4
:100C300000000000000000000000000000000000B4
:100C400000000000000000000000000000000000A4
:100C50000000000000000000000000000000000094
:100C60000000000000000000000000000000000084
:100C700000000000000000000000000000003D1027
:100C80003D103D103D103D103D103D103D103D10FC
:100C900097103D103D1000003D1097103D103D1085
:100CA0003D103D103D103D103D103D103D10971082
:100CB00097103D103D103D103D103D103D103D1072
:100CC000000000003D1097109710971097103D10EE
:100CD0003D103D103D103D103D103D100000000046
:100CE0003D1097109710971097103D103D103D1034
:100CF0003D103D103D103D10000000003D109710CC
:100D00009710971097103D103D103D103D103D106D
:100D10003D103D10000000003D100000971097109E
:100D200097103D1000000000000000009F10000020
:100D300000002F10EE0F0000000000000000000077
:100D40003B10FA0F0000000000003910F80F0000FF
:100D50000000D7100000000000000000E80F0000B5
:100D60000000000000000000000000000000000083
:100D7000000000003110F00F000000000000000033
:100D80003D1029100000000000000000000033109A
:100D9000F20FDD10000000005D102B10EA0F0000C4
:100DA00000000000000000003510F40FFE100000ED
:100DB00097102D10EC0F0000000000000000000054
:100DC00000003710F60F00000000000000000000D7
:100DD0000000000000000000000000000000000013
:100DE0000000000000000000000000000000000003
:100DF00000000000000000000000000000000000F3
:100E000000000000000000000000000000000000E2
:1011100000000000000100005A1112000200006CE3
:10112000113B002100007E110900220000A7113FA1
:101130000021010097110900220100E611190003A6
:101140000000FF110401030904031218020309043B
:101150001D123601C10601C1060012010002000085
:101160000020501D286000010102000109023B001F
:10117000020100C03209040000010301010009213D
:1011800011010001223F000705810308000A09043C
:1011900001000103000000092111010001221900D2
:1011A0000705820308000A05010906A101750195DA
:1011B00008050719E029E715002501810295017549
:1011C0000881039505750105081901290591029506
:1011D0000175039103950675081500256805071923
:1011E0000029688100C0050C0901A10185031501D2
:1011F000269C0219012A9C02751095018100C004E9
:10120000030904180375006E007300700065006325
:10121000006900660069006500640000003603454F
:1012200000720067006F0044006F007800200065C6
:1012300000720067006F006E006F006D0069006350
:101240000020006B006500790062006F0061007291
:1012500000640000000011241FBECFEFDAE0DEBF03
:10126000CDBF11E0A0E0B1E0E4E0F8E202C00590FB
:101270000D92AA31B107D9F712E0AAE1B1E001C09D
:101280001D92AF3CB107E1F7E0D00C9400140C9430
:101290000000282F80911A01821710F480E0089531
:1012A00090E0821B9109FC01EE0FFF1FE80FF91F70
:1012B000E757FD4F80810895282F80911A018217EA
:1012C00010F480E0089590E0821B9109FC01EE0F7C
:1012D000FF1FE80FF91FE757FD4F82810895582F30
:1012E00021E030E0422FF901EC5FFE4F808188233E
:1012F00099F481E0808380911A018F5F80931A01B5
:1013000090E0FC01EE0FFF1FE80FF91FE757FD4FBC
:1013100050832183628306C02F5F3F4F2431310504
:1013200009F740E0842F0895682F50911A0141E099
:101330003DC0842F90E0FC01EE0FFF1FE80FF91F66
:10134000E757FD4F8181861781F519C0842F90E002
:101350009C012F5F3F4FDC01AA0FBB1FA80FB91FD5
:10136000A757BD4FF901EE0FFF1FE20FF31FE7571D
:10137000FD4F80818C93818111968C934F5F45172F
:1013800028F3852F90E0FC01EE0FFF1FE80FF91FF7
:10139000E757FD4F10821182E62FF0E0EC5FFE4F21
:1013A0001082515050931A0108954F5F541708F658
:1013B00008958091C7029091870220918802309110
:1013C000CA028823A9F08CE1989FF001112488EAD1
:1013D000289FC0011124E80FF91F832F90E0880F88
:1013E000991FE80FF91FEC50FC4F8591949114C0A0
:1013F0008CE1989FF001112488EA289FC0011124F4
:10140000E80FF91F832F90E0880F991FE80FF91F4D
:10141000EC57F54F85919491009711F0FC010995D7
:1014200020911A01822F90E0FC01EE0FFF1FE80FC0
:10143000F91FE757FD4F8281823031F480913202EB
:10144000882311F0822F70CF0895CF93DF9348D176
:101450008CE090E0909389008093880090938B00BB
:1014600080938A0090938D0080938C00259A269A11
:10147000279A1FD735D78823E9F38FE790E0909319
:1014800089008093880082E09DE020E931E0F90145
:101490003197F1F70197D9F78FE790E090938B00A0
:1014A00080938A0082E09DE020E931E0F9013197E4
:1014B000F1F70197D9F78FE790E090938D00809333
:1014C0008C0082E09DE020E931E0F9013197F1F7ED
:1014D0000197D9F72598269827988FE790E0909361
:1014E00089008093880090938B0080938A0090936A
:1014F0008D0080938C00C0E2DEE480910201909127
:1015000003012091000130910101309303012093E8
:1015100002019093010180930001D3D01092310217
:10152000ABC01092C8029EC06A2F70E0E09100012B
:10153000F0910101852F90E0880F991F9C0143E0F5
:10154000220F331F4A95E1F7281B390B260F371F4F
:10155000E20FF31F40814093C702E0910201F09136
:101560000301852F90E0880F991F9C01B3E0220FA3
:10157000331FBA95E1F7281B390B260F371FE20FEF
:10158000F31F80818093C502481709F466C0442385
:1015900009F180911A0190E0FC01EE0FFF1FE80FA6
:1015A000F91FE757FD4F208120938802852F90E097
:1015B000880F991FFC01B3E0EE0FFF1FBA95E1F70A
:1015C000E81BF90BE60FF71FED5CFD4F208310922F
:1015D000C60226C0852F90E0880F991FFC0133E0DA
:1015E000EE0FFF1F3A95E1F7E81BF90BE60FF71F27
:1015F000ED5CFD4F808180938802852F90E0880FFD
:10160000991FFC01B3E0EE0FFF1FBA95E1F7E81B4D
:10161000F90BE60FF71FE55EFE4F80818093C6024F
:1016200050938702A093CA021092C902C2DE209191
:10163000C8028091310290E0880F991FFC0143E0BD
:10164000EE0FFF1F4A95E1F7E81BF90BE20FF11DC2
:10165000E55EFE4F8091C60280838091C8028F5F55
:101660008093C802A091C80250913102AE3008F4B4
:101670005BCF5F5F5093310280913102863008F476
:1016800050CF31D60E94DF13CE010197F1F7809140
:101690002D0280FF02C0259A01C0259880912D025D
:1016A00081FF02C0269A01C0269880912D0282FFF8
:1016B00002C0279A01C0279880912D0280912D02A7
:1016C0001CCFCF93DF93EC01BDD0882311F081E0D4
:1016D00004C0CE0139D0811182E0DF91CF9108950D
:1016E000B1D2882311F081E0089503D0811182E006
:1016F00008951F930CD480E429D4182F882301F572
:1017000080E024D480E822D48FEF20D417D4FFD3F4
:1017100080E41CD4182F882399F48CE017D480E837
:1017200015D48FEF13D40AD4F2D380E40FD4182F3A
:10173000882331F484E10AD48FEF08D48FEF06D4E4
:10174000FDD3812F1F9108959F92AF92BF92CF92A8
:10175000DF92EF92FF920F931F93DF93CF930F923D
:10176000CDB7DEB77C01C5DF982E8823A1F0C70175
:1017700040E00EC0FC01E20FF31F10822F5F3F4FCD
:1017800027303105B9F74F5F0E96463009F44CC04B
:1017900020E030E0EFCF00E010E081E0C82ED12C57
:1017A0005E010894A11CB11CB2D380E4CFD382E1C6
:1017B000CDD3C601002E02C0880F991F0A94E2F70C
:1017C0008095C4D3BBD3A3D380E4C0D383E1BED37D
:1017D0009ED381E4BBD3C501D7D3B0D3F701E00FCB
:1017E000F11F25E030E0898190E0022E02C095953E
:1017F00087950A94E2F78C259D258170808321507E
:1018000030403E968FEF2F3F380769F70F5F1F4F2D
:101810000730110509F0C8CF7AD380E497D382E16D
:1018200095D38FEF93D38AD3892D0F90CF91DF91EA
:101830001F910F91FF90EF90DF90CF90BF90AF90EE
:101840009F900895EF92FF920F931F93CF93DF9392
:10185000FC01209A85E08A95F1F78FB1178287FD08
:1018600002C081E087838F01025F1F4F8FB190E03C
:1018700056E0969587955A95E1F721E030E082276A
:1018800093278170D80117968C93BF01645E7F4FB8
:101890008FB190E045E0969587954A95E1F78227CC
:1018A00093278170DB0117968C93AF01465D5F4FE4
:1018B0008FB190E0B4E096958795BA95E1F78227CD
:1018C00093278170DA0117968C93EF01E8968FB118
:1018D00090E0969587958227932781708F8386E481
:1018E000E82EF12CEE0EFF1E8FB182278170D701FA
:1018F00017968C93209885E0982F9A95F1F7219A66
:101900008A95F1F78FB1108687FD02C081E080874C
:101910008FB190E0B6E096958795BA95E1F721E012
:1019200030E0822793278170D80118968C938FB16D
:1019300090E0A5E096958795AA95E1F782279327F1
:101940008170DB0118968C938FB190E0B4E096958E
:101950008795BA95E1F7822793278170DA01189667
:101960008C938FB190E0969587958227932781700D
:1019700088878FB182278170D70118968C93219820
:1019800085E0982F9A95F1F7229A8A95F1F78FB111
:10199000118687FD02C081E081878FB190E0B6E0BB
:1019A00096958795BA95E1F721E030E08227932755
:1019B0008170D80119968C938FB190E0A5E096952F
:1019C0008795AA95E1F7822793278170DB01199605
:1019D0008C938FB190E0B4E096958795BA95E1F736
:1019E000822793278170DA0119968C938FB190E04A
:1019F0009695879582279327817089878FB1822753
:101A00008170D70119968C93229885E0982F9A952A
:101A1000F1F7239A8A95F1F78FB1128687FD02C0FC
:101A200081E082878FB190E0B6E096958795BA9570
:101A3000E1F721E030E0822793278170D8011A96E0
:101A40008C938FB190E0A5E096958795AA95E1F7E4
:101A5000822793278170DB011A968C938FB190E0D7
:101A6000B4E096958795BA95E1F782279327817020
:101A7000DA011A968C938FB190E09695879582271C
:101A8000932781708A878FB182278170D7011A9638
:101A90008C93239885E0982F9A95F1F7529A8A951E
:101AA000F1F78FB1138687FD02C081E083878FB184
:101AB00090E0B6E096958795BA95E1F721E030E0A1
:101AC000822793278170D8011B968C938FB190E069
:101AD000A5E096958795AA95E1F7822793278170CF
:101AE000DB011B968C938FB190E0B4E096958795BF
:101AF000BA95E1F7822793278170DA011B968C93C0
:101B00008FB190E0969587958227932781708B8778
:101B10008FB182278170D7011B968C93529885E0F4
:101B2000982F9A95F1F7539A8A95F1F78FB1148609
:101B300087FD02C081E084878FB190E0B6E0969582
:101B40008795BA95E1F721E030E0822793278170ED
:101B5000D8011C968C938FB190E0A5E0969587955F
:101B6000AA95E1F7822793278170DB011C968C935D
:101B70008FB190E0B4E096958795BA95E1F782270A
:101B800093278170DA011C968C938FB190E0969523
:101B900087958227932781708C878FB182278170E8
:101BA000D7011C968C93539885E0982F9A95F1F75E
:101BB0003E9A8A95F1F78FB1158687FD02C081E0C4
:101BC00085878FB190E0F6E096958795FA95E1F7D5
:101BD00021E030E0822793278170F80185878FB15B
:101BE00090E0E5E096958795EA95E1F782279327BF
:101BF0008170DB011D968C938FB190E064E0969527
:101C000087956A95E1F7822793278170FA01858786
:101C10008FB190E0969587958227932781708D8765
:101C20008FB182278170D7011D968C933E9885E0F5
:101C30008A95F1F780E0DF91CF911F910F91FF908E
:101C4000EF900895E1E6F0E080E8808310825698F6
:101C50005E9824982C9825982698279889EA80934E
:101C6000800089E08093810049D13F9885E0982FDA
:101C70009A95F1F75798982F9A95F1F75498982FCD
:101C80009A95F1F75598982F9A95F1F76E98982FA5
:101C90009A95F1F7479A982F9A95F1F75F9A982FAE
:101CA0009A95F1F75C9A982F9A95F1F75D9A982F8B
:101CB0009A95F1F7769A982F9A95F1F78798982F39
:101CC0009A95F1F78698982F9A95F1F78598982F1D
:101CD0009A95F1F78498982F9A95F1F78198982F13
:101CE0009A95F1F78098982F9A95F1F72098982F68
:101CF0009A95F1F72198982F9A95F1F72298982FB5
:101D00009A95F1F72398982F9A95F1F75298982F72
:101D10009A95F1F75398982F9A95F1F73E98982F46
:101D20009A95F1F78F9A982F9A95F1F78E9A982FA6
:101D30009A95F1F78D9A982F9A95F1F78C9A982F9A
:101D40009A95F1F7899A982F9A95F1F7889A982F92
:101D50009A95F1F72898982F9A95F1F72998982F46
:101D60009A95F1F72A98982F9A95F1F72B98982F32
:101D70009A95F1F75A98982F9A95F1F75B98982FC2
:101D80009A95F1F746988A95F1F780E008956623D1
:101D900009F470C0633E61F1643E40F4613EC1F0FD
:101DA000623EF0F4603E09F04DC00AC0653E81F12C
:101DB000653E30F1663EA1F1673E09F043C038C090
:101DC00090912602882311F0916039C09E7F37C020
:101DD00090912602882311F0926031C09D7F2FC020
:101DE00090912602882311F0946029C09B7F27C020
:101DF00090912602882311F0986021C0977F1FC020
:101E000090912602882311F0906119C09F7E17C01F
:101E100090912602882311F0906211C09F7D0FC01F
:101E200090912602882311F0906409C09F7B07C01F
:101E300090912602882311F0906801C09F779093BB
:101E400026020895A7E2B2E0E0E0F0E09C9188234A
:101E500031F0992351F4E95DFD4F608308959617A1
:101E600021F4E95DFD4F1082089531961196E63018
:101E7000F10561F70895982F833EF1F0843E38F420
:101E8000813E91F0823EA0F4803E51F509C0853E2E
:101E9000D9F0853EA8F0863ED9F0873E09F51CC0F2
:101EA0008091260280FD28C08091260281FD24C0F9
:101EB0008091260282FD20C08091260283FD1CC0F5
:101EC0008091260284FD18C08091260285FD14C0F1
:101ED0008091260286FD10C08091260287FD0CC0ED
:101EE000E7E2F2E08081891739F0319682E0ED3245
:101EF000F807C1F780E0089581E00895E9EBF0E08C
:101F000080818C7F808388E48093B800089584EA80
:101F10008093BC008091BC0087FFFCCF8091B9000A
:101F2000887F883049F08091B900887F803121F026
:101F30008091B900887F089580E0089584E98093B6
:101F4000BC008091BC0084FDFCCF08958093BB0051
:101F500084E88093BC008091BC0087FFFCCF809117
:101F6000B900887F883171F08091B900887F88320C
:101F700049F08091B900887F803421F08091B900C8
:101F8000887F089580E00895FC0184EC8093BC0074
:101F90008091BC0087FFFCCF8091BB008083809143
:101FA000B900887F803511F480E008958091B900F0
:101FB000887F0895CF93DF93C82FD0E0C95EDD4FAF
:101FC0008881882311F0B0D91882DF91CF910895CC
:101FD0008AE0F0CF89E0EECF88E0ECCF87E0EACF6F
:101FE00086E0E8CF85E0E6CF84E0E4CF83E0E2CF8F
:101FF00082E0E0CF81E0DECF0F931F93082FE091C6
:10200000880284E5E89FF0011124809187022EE088
:10201000829FC0011124E80FF91F8091CA02E80FC6
:10202000F11DE455FF4F1491802FC4DF80E044D9A7
:102030008150823018F480E02CD976D9812F60E06D
:102040004ED9E02FF0E0E95EFD4F80831F910F91A4
:1020500008958AE0D1CF89E0CFCF88E0CDCF87E067
:10206000CBCF86E0C9CF85E0C7CF84E0C5CF83E082
:10207000C3CF82E0C1CF81E0BFCF81E08093C602B1
:102080008091C9028F5F8093C90203D9809388022F
:102090009091CA022091870230E0220F331FF9018C
:1020A00043E0EE0FFF1F4A95E1F7E21BF30BE90F48
:1020B000F11DED5CFD4F80837CC91F93E091880288
:1020C00084E5E89FF0011124809187022EE0829F31
:1020D000C0011124E80FF91F8091CA02E80FF11D19
:1020E000E455FF4F1491812FC6DE882311F080E064
:1020F00001C081E0612F4BDE1F910895E0918802BD
:1021000084E5E89FF0011124809187022EE0829FF0
:10211000C0011124E80FF91F8091CA02E80FF11DD8
:10212000E455FF4FE4918091C7026E2F30CE80912D
:10213000C602882319F481E080933202DFCFF8943D
:1021400081E08093E00080E28093D800E9ECF0E049
:10215000108280E29EE40197F1F71DBA10926800A8
:102160001CBC10BE1FBA10927A0010926E00109222
:102170006F0010927100109272001082ECEBF0E090
:10218000108214B817B81AB81DB810BA108215B852
:1021900018B81BB81EB811BA0C94003F089581E01E
:1021A00063E8F5DDA0D080E063E8F1DD9CC08091BC
:1021B0002502BAD810922502F2CF1F93909188027F
:1021C00084E5989FF0011124809187022EE0829F80
:1021D000C0011124E80FF91F8091CA02E80FF11D18
:1021E000E455FF4F1491809125029ED8812F60E025
:1021F00076D880932502D3DF1F910895E09188025D
:1022000084E5E89FF0011124809187022EE0829FEF
:10221000C0011124E80FF91F8091CA02E80FF11DD7
:10222000E455FF4F64919091C702992329F480915E
:102230002402815080932402892FA9DD80912402F9
:10224000813041F58091C702882321F181EE13DEB0
:102250008093230285EE0FDE8093220280E061EE00
:1022600096DD80E065EE93DD81E069E390DD3BD0B3
:1022700080E069E38CDD37D080912302882319F058
:1022800081E061EE84DD80912202882319F081E0F3
:1022900065EE7DDD8091C702882329F080912402BC
:1022A0008F5F8093240208958091C70261EE6FDDF5
:1022B0003ECF81E08093D70080EA8093D80082E10E
:1022C00089BD09B400FEFDCF80E98093D80010924B
:1022D000E00010922E028CE08093E2007894089542
:1022E00080912E02089580912E02882309F441C026
:1022F0002FB7F89481E08093E9009091E4009E5C10
:1023000031E08091E80085FD0EC02FBF80912E0244
:10231000882379F18091E400891759F12FB7F89457
:102320003093E900EECF809126028093F100109265
:10233000F100809127028093F10080912802809320
:10234000F100809129028093F10080912A0280930C
:10235000F10080912B028093F10080912C028093F8
:10236000F1008AE38093E80010922F022FBF80E0F3
:1023700008958FEF08951F920F920FB60F921124B8
:102380002F938F939F938091E1001092E100982FFB
:1023900083FF0FC01092E90081E08093EB00109260
:1023A000EC0082E28093ED0088E08093F0001092D0
:1023B0002E0292FF44C080912E02882309F43FC070
:1023C000209118012223D9F1809130028F5F8093F0
:1023D000300290E083709070892B89F581E08093C2
:1023E000E9008091E80085FF2AC080912F028F5F6D
:1023F00080932F02821719F510922F0280912602E6
:102400008093F1001092F100809127028093F100F7
:10241000809128028093F100809129028093F1003D
:1024200080912A028093F10080912B028093F10029
:1024300080912C028093F1008AE38093E8009F91C1
:102440008F912F910F900FBE0F901F9018951F9294
:102450000F920FB60F9211240F931F932F933F9358
:102460004F935F936F937F938F939F93AF93BF939C
:10247000EF93FF931092E9008091E80083FF5BC126
:102480004091F1003091F1008091F100682F70E0EF
:102490002091F100922F80E0682B792B8091F10040
:1024A000A82FB0E02091F100922F80E0A82BB92B4B
:1024B0001091F1000091F10082EF8093E800363036
:1024C00009F05AC02BE131E1A90145505040F90112
:1024D0003797859194918617970701F5FA018591B1
:1024E00094918A179B07D1F49A012E5F3F4FF9010F
:1024F000659174912E5F3F4FF9014491212F30E097
:10250000902F80E0282B392B2F3F310519F010F048
:102510002FEF30E0241758F4422F09C0295F3F4FB6
:10252000495F5F4FF1E12A353F0789F604C15EEF4D
:102530008091E800282F30E0C90185709070892BC8
:10254000B9F322FDFBC0342F413208F030E2232FD3
:10255000CB0106C0FC010196E491E093F10021500B
:102560002223C1F7630F711D431B5093E8004423DE
:10257000F9F63032E9F2E2C0353061F48EEF809343
:10258000E8008091E80080FFFCCF862F8068809370
:10259000E300D4C0393031F5442309F071C06093B1
:1025A0002E028EEF8093E80083E591E121E02093F5
:1025B000E900FC010196E491E093EB00EE2369F061
:1025C000AC014F5F5F4FFC0184918093EC00CA0126
:1025D0000196FA0134913093ED002F5F253039F7E1
:1025E0008EE149C0383051F4403809F049C080913B
:1025F000E80080FFFCCF80912E027BC03323D1F412
:102600008091E80080FFFCCF423811F080E00DC0DF
:10261000A093E9008091EB0090E025E096958795E6
:102620002A95E1F781701092E9008093F1001092F1
:10263000F1007DC0313011F0333011F5423001F539
:1026400061157105E9F42A2F2F77822F815084308C
:10265000B8F48EEF8093E8002093E900333009F45A
:102660006AC089E18093EB0081E090E002C0880FAE
:10267000991F2A95E2F78093EA001092EA005EC063
:10268000AB2B09F058C0413AB9F5313009F58091CA
:10269000E80080FFFCCF809126028093F100109229
:1026A000F100809127028093F100809128028093AD
:1026B000F100809129028093F10080912A02809399
:1026C000F10080912B028093F10080912C0211C0C7
:1026D000323039F48091E80080FFFCCF80911801FE
:1026E00008C0333041F58091E80080FFFCCF809135
:1026F00019018093F1001BC04132E9F4393061F4D3
:102700008091E80082FFFCCF8091F10080932D0240
:102710008BEF8093E8000BC03A3029F470931801D6
:1027200010922F0204C03B3031F4609319018EEFF8
:102730008093E80003C081E28093EB00FF91EF916A
:10274000BF91AF919F918F917F916F915F914F91C9
:102750003F912F911F910F910F900FBE0F901F90DF
:102760001895382F80912E02882339F12FB7F894CD
:1027700082E08093E9009091E4009E5C42E08091C9
:10278000E80085FD0EC02FBF80912E028823A9F09E
:102790008091E400891789F02FB7F8944093E900FD
:1027A000EECF3093F1006093F1007093F1008AE373
:1027B0008093E8002FBF80E008958FEF0895609127
:1027C000CB027091CC028091CD029091CE0268171D
:1027D000790719F420E030E011C083E0C2DF282F30
:1027E000332727FD30952115310541F48091CB0227
:1027F0009091CC029093CE028093CD02822F0895C7
:04280000F894FFCF7A
:102804006F01C3010100000000000000000000008F
:0A28140000000000000000007D013C
:00000001FF
