:100000000C942B090C9447090C9447090C9447094C
:100010000C9447090C9447090C9447090C94470920
:100020000C9447090C9447090C9451100C94AB1094
:100030000C9447090C9447090C9447090C94470900
:100040000C9447090C9447090C9447090C944709F0
:100050000C9447090C9447090C9447090C944709E0
:100060000C9447090C9447090C9447090C944709D0
:100070000C9447090C9447090C9447090C944709C0
:100080000C9447090C9447090C9447090C944709B0
:100090000C9447090C9447090C9447090C944709A0
:1000A0000C9447090C9447090C944709D40ED40EBC
:1000B000190FD40ED40ED40E00000000F40FD40E8D
:1000C000D40ED40ED40ED40ED40E790F790FD40ED4
:1000D000D40E0000000000000000D40ED40ED40E98
:1000E000D40ED40E7E0FD40ED40ED40ED40ED40E55
:1000F00000000000D40ED40ED40ED40ED40E7E0F09
:10010000D40ED40ED40ED40ED40ED40E00000000A3
:10011000D40ED40ED40ED40ED40ED40ED40ED40ECF
:10012000D40ED40ED40ED40E00000000D40ED40E83
:10013000D40ED40ED40ED40ED40ED40ED40ED40EAF
:10014000D40ED40E00000000D40ED40ED40ED40E63
:10015000D40ED40EFD0EFD0EFD0EFD0EFD0EFD0E99
:1001600000000000FD0EFD0EFD0EFD0EFD0EFD0E4D
:10017000FD0EFD0EFD0EFD0EFD0E00000000000048
:100180000000FD0EFD0EFD0EFD0EFD0EFD0ED40E4B
:10019000D40EFD0ED40EFD0E00000000790FD40E1B
:1001A000D40EFD0EFD0ED40EFD0ED40ED40ED40EC4
:1001B000D40EFD0E00000000790F790F790F790F32
:1001C000790FD40EFD0E790FFD0ED40EFD0EFD0E2F
:1001D00000000000790F790F790F790FD40ED40E3B
:1001E000FD0ED40ED40ED40ED40ED40E000000009A
:1001F000D40ED40ED40ED40ED40ED40E00000000B3
:1002000000000000000000000000000000000000EE
:1002100000000000000000000000000000000000DE
:1002200000000000000000000000000000000000CE
:1002300000000000000000000000000000000000BE
:1002400000000000000000000000000000000000AE
:10025000000000000000000000000000000000009E
:10026000000000000000000000000000000000008E
:10027000000000000000000000000000000000007E
:10028000000000000000000000000000000000006E
:10029000000000000000000000000000000000005E
:1002A00000000000FD0EFD0EFD0EFD0EFD0EFD0E0C
:1002B00000000000FD0EFD0EFD0EFD0EFD0EFD0EFC
:1002C000FD0ED40EFD0EFD0EFD0E00000000000020
:1002D0000000FD0EFD0EFD0EFD0EFD0EFD0EFD0ED1
:1002E000FD0EFD0EFD0EFD0E00000000FD0EFD0ECC
:1002F000FD0EFD0EFD0EFD0EFD0ED40ED40ED40E21
:10030000D40ED40E00000000D40ED40ED40ED40EA1
:10031000D40EFD0EFD0E790F790F790F790F790F3D
:1003200000000000790F790F790F790F790FFD0E1A
:10033000FD0EFD0EFD0EFD0EFD0EFD0E000000007B
:10034000FD0EFD0EFD0EFD0EFD0EFD0E3F0F00001D
:100350000000000000001D0F000000000000000071
:10036000000000000000310F00000000000000004D
:100370001B0F000000000000000000000000000053
:1003800000002F0F000000000000170F190F0000E1
:10039000000000000000000000002B0F2D0FF40FE4
:1003A00000000000FD0E3B0F3D0F000000000000AC
:1003B00000000000270F290FD30F00000000DC0E03
:1003C000370F390F00000000000000000000230F6D
:1003D000250F7E0F00000000D40E330F350F0000F4
:1003E00000000000000000001F0F210F00000000AF
:1003F00000000000000000000000000000000000FD
:1004000000000000000000000000000000000000EC
:1004100000000000000000000000000000000000DC
:1004200000000000000000000000000000000000CC
:10073000000000000000000000000000D40ED40EF5
:10074000170FD40ED40ED40E00000000D30FD40E19
:10075000D40ED40ED40ED40ED40E790FD40ED40EE3
:10076000D40E0000000000000000D40ED40ED40E01
:10077000D40ED40E7E0FD40ED40ED40ED40ED40EBE
:1007800000000000D40ED40ED40ED40ED40E7E0F72
:10079000D40ED40ED40ED40ED40ED40E000000000D
:1007A000D40ED40ED40ED40ED40ED40ED40ED40E39
:1007B000D40ED40ED40ED40E00000000D40ED40EED
:1007C000D40ED40ED40ED40ED40ED40ED40ED40E19
:1007D000D40ED40E00000000D40ED40ED40ED40ECD
:1007E000D40ED40EFD0EFD0EFD0EFD0EFD0EFD0E03
:1007F00000000000FD0EFD0EFD0EFD0EFD0EFD0EB7
:10080000FD0EFD0EFD0EFD0EFD0E000000000000B1
:100810000000FD0EFD0EFD0EFD0EFD0EFD0EFD0E8B
:10082000FD0EFD0EFD0EFD0E00000000790FD40E32
:10083000D40EFD0EFD0EFD0EFD0EFD0ED40ED40EDB
:10084000D40EFD0E00000000790F790F790F790F9B
:10085000790FFD0EFD0E790FFD0ED40EFD0EFD0E6F
:1008600000000000790F790F790F790FFD0EFD0E52
:100870000000D40ED40ED40ED40ED40E000000000E
:10088000D40ED40ED40ED40ED40ED40E000000001C
:100890000000000000000000000000000000000058
:1008A0000000000000000000000000000000000048
:1008B0000000000000000000000000000000000038
:1008C0000000000000000000000000000000000028
:1008D0000000000000000000000000000000000018
:1008E0000000000000000000000000000000000008
:1008F00000000000000000000000000000000000F8
:1009000000000000000000000000000000000000E7
:1009100000000000000000003F0F00000000000089
:1009200000000000000000000000000000000000C7
:1009300000000000FD0EFD0EFD0EFD0EFD0EFD0E75
:1009400000000000FD0EFD0EFD0EFD0EFD0EFD0E65
:10095000FD0EFD0EFD0EFD0EFD0E00000000000060
:100960000000FD0EFD0EFD0EFD0EFD0EFD0EFD0E3A
:10097000FD0EFD0EFD0EFD0E00000000FD0EFD0E35
:10098000FD0EFD0EFD0EFD0EFD0ED40ED40ED40E8A
:10099000D40ED40E00000000D40ED40ED40ED40E0B
:1009A000D40EFD0EFD0E790F790F790F790F790FA7
:1009B00000000000790F790F790F790F790FFD0E84
:1009C000FD0EFD0EFD0EFD0EFD0EFD0E00000000E5
:1009D000FD0EFD0EFD0EFD0EFD0EFD0E00000000D5
:1009E0000000000000000000000000000000000007
:1009F00000000000000000000000000000000000F7
:100A000000000000000000000000000000000000E6
:100A100000000000000000000000000000000000D6
:100DC0000000000000000000000000004CE3012AC9
:100DD000E34C000003E62C28E69BE01F3531310090
:100DE000000000502DE44FE4E11D1B060719000030
:100DF000100B363733E529041516170A00000E11BB
:100E0000080C12342B141A09130500000D0F181CBE
:100E1000382E351E1F202122000023242526272DB1
:100E200000000000000000000000000000000000C2
:100E300000000000000000000000000000000000B2
:100E400000000000242F30000000000050514F002F
:100E50000000232627211E00001F00520000000072
:100E6000202F30250000003A3B3C3D3E00003F4033
:100E700041424300000000000000000000000000AC
:100E80000000000000000000000000000000000062
:100E90000000000000000000000000000000000052
:100EA0000000000000000000000000000000000042
:100EB0000000000000000000000000000000000032
:100EC0000000000000000000000000000000000022
:100ED0000000000000000000000000000000000012
:100EE0000000000000000000000000000000000002
:100EF0000000001E1F202122000023242526270099
:100F0000001E1F2021220000232425262700000088
:100F100000000000000000000000000000000000D1
:100F200000000000000000000000000000000000C1
:100F300000000000000000000000000000000000B1
:100F400000000000000000000000000000000000A1
:100F50000000000000000000000000000000000091
:100F60000000000000000000000000000000000081
:100F70000000000000000000000000000000000071
:100F80000000000000000000000000000000000061
:100F90000000000000000000000000000000000051
:100FA0000000000000000000000000000000000041
:100FB0000000000000000000000000000000000031
:100FC0000000000000000000000000000000000021
:100FD0000000000000000000000000000000000011
:100FE0000000000000000000000000000000000001
:100FF00000000000000000000000000000000000F1
:1010000000000000000000000000000000000000E0
:1010100000000000000000000000000000000000D0
:1010200000000000000000000000000000000000C0
:1010300000000000000000000000000000000000B0
:1010400000000000000000000000000000000000A0
:101050000000000000000000000000000000000090
:101060000000000000000000000000000000000080
:101070000000000000000000000000000000000070
:101080000000000000000000000000000000000060
:101090000000000000000000000000000000000050
:1010A0000000000000000000000000000000000040
:1010B0000000000000000000000000000000000030
:1010C0000000000000000000000000000000000020
:1010D0000000000000000000000000000000000010
:1010E0000000000000000000000000000000000000
:1010F00000000000000000000000000000000000F0
:1011000000000000000000000000000000000000DF
:1011100000000000000100003C121200020000A9C3
:10112000113B00210000BB110900220000FD113F0E
:1011300000210100D4110900220100E4111900036B
:101140000000A51104010309048B1118020309040E
:1011500053113636034500720067006F0044006F7C
:1011600000780020006500720067006F006E006F5D
:10117000006D006900630020006B0065007900626B
:10118000006F006100720064000000180375006EBB
:101190000073007000650063006900660069006507
:1011A00000640000000403090409023B000201007E
:1011B000C0320904000001030101000921110100EE
:1011C00001223F000705810308000A09040100010C
:1011D0000300000009211101000122190007058206
:1011E0000308000A050C0901A10185031501269CCD
:1011F0000219012A9C02751095018100C0050109A0
:1012000006A10175019508050719E029E7150025D4
:10121000018102950175088103950575010508197D
:10122000012905910295017503910395067508152D
:101230000025680507190029688100C01201000215
:1012400000000020501D286000010102000101C1C2
:101250000601C106000011241FBECFEFDAE0DEBF99
:10126000CDBF11E0A0E0B1E0E6ECF4E202C00590F1
:101270000D92AA31B107D9F722E0AAE1B1E001C08D
:101280001D92AF3CB207E1F7BED00C9451120C9402
:101290000000E0911A01E81768F02E2F281B330B8D
:1012A000C901F901EE0FFF1FE80FF91FE757FD4FC6
:1012B0008081089580E00895E0911A01E81768F0B0
:1012C0002E2F281B330BC901F901EE0FFF1FE80F6A
:1012D000F91FE757FD4F8281089580E00895982F08
:1012E00041E050E0842FFA01E050FF4F20812111AE
:1012F00014C021E02083E0911A01EF5FE0931A010E
:101300002E2F30E0F901EE0FFF1FE20FF31FE7571A
:10131000FD4F90834183628308954F5F5F4F443157
:10132000510501F780E0089520911A0191E02917F5
:1013300008F40895492F50E0FA01EE0FFF1FE40F63
:10134000F51FE757FD4F3181381323C033E0939FDA
:10135000F0011124E757FD4F9217A0F0422F50E003
:10136000FA01EE0FFF1FE40FF51FE757FD4F108244
:101370001182E82FF0E0E050FF4F108221502093BF
:101380001A01089533813083348131839F5F33960E
:10139000E3CF9F5FCCCF80918702E091880224E564
:1013A000E29FF00111249F014EE0849F200D311D2A
:1013B0001124E091CA02E20FF32FF11DEE0FFF1F7F
:1013C0008091C7028823D9F0E45CF84F859194910D
:1013D000009711F0FC01099580911A01282F30E047
:1013E000F901EE0FFF1FE20FF31FE757FD4F928148
:1013F000923041F490913202992321F095CFE45537
:10140000FF4FE4CF0895E8D08CE090E090938900FE
:101410008093880090938B0080938A0090938D0036
:1014200080938C00259A269A279AE9D5FFD58823A0
:10143000E9F38FE790E090938900809388002FE78D
:1014400032E440E1215030404040E1F700C000006C
:1014500090938B0080938A00EFE7F2E420E1E15063
:10146000F0402040E1F700C0000090938D00809391
:101470008C003FE742E4E0E131504040E040E1F7DA
:1014800000C00000259826982798909389008093A3
:10149000880090938B0080938A0090938D008093B6
:1014A0008C00DEE0809114019091150120911601CD
:1014B0003091170130931501209314019093170177
:1014C0008093160193D0109231021092C802D090EE
:1014D000C802C0913102FDE0FD1508F5CF5FC09351
:1014E0003102C63090F3A5D5B8D78FE19EE40197BD
:1014F000F1F700C000008091270280FF67C0259AA5
:101500008091270281FF64C0269A8091270282FF82
:1015100061C0279A8091270280912702C3CFED2CCA
:10152000F12CE0911601F0911701DC9FC00111240C
:10153000E80FF91FEE0DFF1D20812093C702E091F7
:101540001401F0911501E80FF91FEE0DFF1D308118
:101550003093C502231729F18C010D5C1D4F222306
:1015600031F180E096DE80938802F801EE0DFF1DD8
:1015700080831092C602C0938702D092CA02109252
:10158000C90209DF809131022091C802D89FC001B1
:101590001124855E9E4F820F911D2091C602FC0191
:1015A00020838091C8028F5F8093C80290CFF8019A
:1015B000EE0DFF1D208120938802855E9E4FFC0169
:1015C000EE0DFF1D80818093C602D5CF259898CF60
:1015D00026989BCF27989ECFB9D0811105C017D0F0
:1015E000882319F082E0089581E00895CF93DF9376
:1015F000D82FC92F74D1811108C08D2F9C2F32D0C4
:10160000811182E0DF91CF91089581E0FBCFCF93EC
:1016100024D380E441D3C82F811120C080E03CD383
:101620008FEF3AD380EC38D32FD317D380E434D361
:10163000C82F811113C08CE02FD38FEF2DD380ECF6
:101640002BD322D30AD380E427D3C82F811106C01D
:1016500084E122D38FEF20D38FEF1ED315D38C2FAD
:10166000CF910895BF92CF92DF92EF92FF920F93A6
:101670001F93CF93DF930F92CDB7DEB77C01C7DF07
:10168000B82E8823D9F0F701C7018C5A9F4F1082DA
:101690001182128213821482158216823E968E1750
:1016A0009F07A9F78B2D0F90DF91CF911F910F917D
:1016B000FF90EF90DF90CF90BF900895870185E075
:1016C000E82EF12CCC24C394D12CC7D280E4E4D2F0
:1016D00083E1E2D2C6010E2C01C0880F0A94EAF71A
:1016E0008095DAD2D1D2B9D280E4D6D282E1D4D2F6
:1016F000B4D281E4D1D2CE010196ECD2C5D24981D7
:1017000050E0F80190E080E09A01082E02C0359583
:1017100027950A94E2F72095309521702193019640
:101720008730910589F781E0E81AF108025F1F4FC1
:101730008FEFE816F80609F0C8CF8FD280E4ACD25C
:1017400083E1AAD28FEFA8D29FD2ACCFE1E6F0E03E
:1017500080E88083108256985E9824982C9825986B
:101760002698279889EA8093800089E080938100F9
:101770006BD23F9885E08A95F1F70000579885E095
:101780008A95F1F70000549885E08A95F1F70000FA
:10179000559885E08A95F1F700006E9885E08A9566
:1017A000F1F70000479A85E08A95F1F700005F9A0B
:1017B00085E08A95F1F700005C9A85E08A95F1F75B
:1017C00000005D9A85E08A95F1F70000769A85E041
:1017D0008A95F1F70000879885E08A95F1F7000077
:1017E000869885E08A95F1F70000859885E08A95CE
:1017F000F1F70000849885E08A95F1F70000819860
:1018000085E08A95F1F70000809885E08A95F1F7E8
:101810000000209885E08A95F1F70000219885E086
:101820008A95F1F70000229885E08A95F1F700008B
:10183000239885E08A95F1F70000529885E08A9513
:10184000F1F70000539885E08A95F1F700003E9883
:1018500085E08A95F1F700008F9885E08A95F1F789
:1018600000008E9885E08A95F1F700008D9885E05C
:101870008A95F1F700008C9885E08A95F1F70000D1
:10188000899885E08A95F1F70000889885E08A9527
:10189000F1F70000289A85E08A95F1F70000299A6F
:1018A00085E08A95F1F700002A9A85E08A95F1F79C
:1018B00000002B9A85E08A95F1F700005A9A85E09E
:1018C0008A95F1F700005B9A85E08A95F1F70000B0
:1018D000469A85E08A95F1F7000080E00895FC01C2
:1018E000879A85E08A95F1F7000083B18095817031
:1018F000878393B181E0969591709827908793B1F3
:1019000092FB992790F99827918793B193FB992798
:1019100090F99827928799B192FB992790F9982787
:10192000938799B193FB992790F99827948796B15B
:1019300096FB992790F998279587879895E09A952F
:10194000F1F70000869A95E09A95F1F7000093B1BF
:1019500090959170958B93B1969591709827968BF1
:1019600093B192FB992790F99827978B93B193FBAA
:10197000992790F99827908F99B192FB992790F920
:101980009827918F99B193FB992790F99827928F77
:1019900096B196FB992790F99827938F869895E0B2
:1019A0009A95F1F70000859A95E09A95F1F7000075
:1019B00093B19095917093A393B196959170982758
:1019C00094A393B192FB992790F9982795A393B18B
:1019D00093FB992790F9982796A399B192FB9927A1
:1019E00090F9982797A399B193FB992790F9982795
:1019F00090A796B196FB992790F9982791A785987B
:101A000095E09A95F1F70000849A95E09A95F1F7A0
:101A1000000093B19095917091AB93B196959170B0
:101A2000982792AB93B192FB992790F9982793ABA3
:101A300093B193FB992790F9982794AB99B192FBB6
:101A4000992790F9982795AB99B193FB992790F92D
:101A5000982796AB96B196FB992790F9982797AB64
:101A6000849895E09A95F1F70000819A95E09A950F
:101A7000F1F7000093B19095917097AF93B1DF01AA
:101A8000A05CBF4F9695917098279C9393B1119647
:101A900092FB992790F998279C9393B1119693FB09
:101AA000992790F998279C9399B1119692FB9927C1
:101AB00090F998279C9399B1119693FB992790F9E7
:101AC00098279C9396B1119696FB992790F99827A1
:101AD0009C93819895E09A95F1F70000809A95E0A3
:101AE0009A95F1F7000093B1EA5BFF4F90959170E2
:101AF000978393B1969591709827908793B192FBB5
:101B0000992790F99827918793B193FB992790F99A
:101B10009827928799B192FB992790F998279387F4
:101B200099B193FB992790F99827948796B196FBE2
:101B3000992790F989278587809885E08A95F1F71C
:101B4000000080E00895662309F456C0E0E2E60F45
:101B5000E830C0F5F0E0ED5AFD4E90912F029BC4A5
:101B6000882321F0916090932F0208959E7FFBCFF0
:101B7000882311F09260F7CF9D7FF5CF882311F075
:101B80009460F1CF9B7FEFCF882311F09860EBCF6B
:101B9000977FE9CF882311F09061E5CF9F7EE3CF57
:101BA000882311F09062DFCF9F7DDDCF882311F075
:101BB0009064D9CF9F7BD7CF882311F09068D3CF83
:101BC0009F77D1CFE9E2F2E030E020E091918823E5
:101BD00039F091110CC0275D3D4FF90160830895E4
:101BE000961305C0275D3D4FF901108208952F5FC0
:101BF0003F4F2630310551F70895E0E2E80FE83015
:101C0000B0F4F0E0E55AFD4E90912F0244C490FDEF
:101C100019C091FD17C092FD15C093FD13C094FD2E
:101C200011C095FD0FC096FD0DC097FD0BC0E9E2F8
:101C3000F2E096E09E0F2191281721F09E13FBCF32
:101C400080E0089581E00895E9EBF0E080818C7FE9
:101C5000808388E48093B800089584EA8093BC0070
:101C60008091BC0087FFFCCF8091B900887F8830CD
:101C700049F08091B900887F803121F08091B900CE
:101C8000887F089580E0089584E98093BC00809166
:101C9000BC0084FDFCCF08958093BB0084E8809352
:101CA000BC008091BC0087FFFCCF8091B900887F89
:101CB000883171F08091B900887F883249F0809135
:101CC000B900887F803421F08091B900887F089521
:101CD00080E00895FC0184EC8093BC008091BC00FE
:101CE00087FFFCCF8091BB0080838091B900887F03
:101CF000803521F08091B900887F089580E00895B3
:101D0000CF93DF93C82FD0E0C95EDD4F8881882351
:101D100011F00ADB1882DF91CF910895CF93DF9302
:101D2000C82F80918702E091880224E5E29FF001AC
:101D300011249F014EE0849F200D311D1124E0915C
:101D4000CA02E20FF32FF11DE453F24FD4918C2F0E
:101D5000D7DF80E0B1DA8150823018F480E099DA80
:101D6000E3DA60E08D2FBBDAEC2FF0E0E95EFD4FA7
:101D70008083DF91CF91089580918702E09188025E
:101D800094E5E99FB00111249EE0899F600D711DCB
:101D90001124E091CA02E60FF72FF11DE453F24F30
:101DA00064918091C702CFCE8091C602811103C099
:101DB00081E080933202E0CFCF9380918702E0915F
:101DC000880224E5E29FF00111249F014EE0849FE8
:101DD000200D311D1124E091CA02E20FF32FF11DF5
:101DE000E453F24FC4918C2F08DF6C2F882319F035
:101DF00080E0CF91A8CE81E0FCCF81E08093C60245
:101E00008091C9028F5F8093C90243DA8093880270
:101E1000909187024091CA025EE0959F9001112443
:101E20002D5C3D4F240F311DF9018083B4CA81E040
:101E300075CF81E065CF82E071CF82E061CF83E032
:101E40006DCF83E05DCF84E069CF84E059CF85E03A
:101E500065CF85E055CF86E061CF86E051CF87E042
:101E60005DCF87E04DCF88E059CF88E049CF89E04A
:101E700055CF89E045CF8AE051CF8AE041CFF89431
:101E800081E08093E00080E28093D800E9ECF0E00C
:101E900010828FE19EE40197F1F700C000001DBAA7
:101EA000109268001CBC10BE1FBA10927A001092EB
:101EB0006E0010926F0010927100109272001082EA
:101EC000ECEBF0E0108214B817B81AB81DB810BACD
:101ED000108215B818B81BB81EB811BA0C94003F80
:101EE000089563E881E02FDEA4D063E880E02BDE74
:101EF000A0C061EE8091C70226DE56CF8091870296
:101F0000E091880294E5E99FB00111249EE0899F49
:101F1000600D711D1124E091CA02E60FF72FF11D2B
:101F2000E453F24F64918091C702811105C09091F2
:101F3000240291509093240206DE80912402813085
:101F400041F58091C702882369F181EE56DE8093C6
:101F5000230285EE52DE8093220261EE80E0F3DD03
:101F600065EE80E0F0DD69E381E0EDDD62D069E3FC
:101F700080E0E9DD5ED080912302882319F061EED4
:101F800081E0E1DD80912202882319F065EE81E095
:101F9000DADD8091C702882329F0809124028F5FC7
:101FA000809324020895CF9380918702E091880264
:101FB00024E5E29FF00111249F014EE0849F200D53
:101FC000311D1124E091CA02E20FF32FF11DE453F9
:101FD000F24FC49180912502A7D960E08C2F7FD960
:101FE00080932502CF917DCF809125029DD91092BB
:101FF000250277CF8091E80080FFFCCF089581E033
:102000008093D70080EA8093D80082E189BD09B42B
:1020100000FEFDCF80E98093D8001092E00010927E
:1020200030028CE08093E200789408958091300231
:10203000089580913002811102C08FEF08958FB70B
:10204000F89491E09093E9009091E4009E5C21E087
:102050003091E80035FD0EC08FBF8091300288239B
:1020600061F38091E400891741F38FB7F8942093CE
:10207000E900EECF90912F029093F1001092F100C1
:10208000E9E2F2E091919093F10092E0EF32F907EA
:10209000C9F79AE39093E800109228028FBF80E07E
:1020A00008951F921FB61F9211248F939F93EF9351
:1020B000FF938091E1001092E10083FF0FC0109226
:1020C000E90091E09093EB001092EC0092E2909383
:1020D000ED0098E09093F0001092300282FF33C040
:1020E00080913002882379F180911801882359F179
:1020F000809126028F5F80932602837021F581E014
:102100008093E9008091E80085FF1DC0809128023E
:102110008F5F8093280290911801891314C0109248
:10212000280280912F028093F1001092F100E9E2E1
:10213000F2E081918093F10082E0EF32F807C9F775
:102140008AE38093E800FF91EF919F918F911F9018
:102150001FBE1F9018951F920F920FB60F92112459
:10216000EF92FF920F931F932F933F934F935F93A1
:102170006F937F938F939F93AF93BF93CF93DF938F
:10218000EF93FF931092E9008091E80083FF70C005
:10219000D091F100C091F1000091F1008091F10027
:1021A000182FE090F1008091F100F82E2091F100BD
:1021B0003091F10082EF8093E800C63009F064C0EE
:1021C00084E191E1FC01459154910417150709F050
:1021D00049C0FC01329645915491E416F50609F088
:1021E00041C0FC013496459154910696FC018491BE
:1021F0002F3F310519F010F02FEF30E0281708F4C9
:10220000822F3EEF9091E800292F2570D9F392FD9F
:1022100012C0982F813208F090E2FA01292F211183
:102220002DC0490F511D282F291B3093E800891319
:1022300023C0803208F5FF91EF91DF91CF91BF91DC
:10224000AF919F918F917F916F915F914F913F914E
:102250002F911F910F91FF90EF900F900FBE0F9055
:102260001F9018950796F1E183359F0709F0AACFD3
:1022700081E28093EB00DFCF822FC4CF6491609323
:10228000F10021503196CBCFC53041F48EEF8093D1
:10229000E800B0DE00680093E300CDCFC93049F517
:1022A000D1116AC0009330028EEF8093E80021E0E4
:1022B0008EE492E12093E900AC014F5F5F4FFC0197
:1022C00034913093EB00332391F0FA014491409321
:1022D000EC003196E4910396E093ED002F5F2530FA
:1022E00049F78EE18093EA001092EA00A4CFCA0178
:1022F000F5CFC83049F4D03809F03EC07BDE80917C
:1023000030028093F10012C0C11114C073DED238C4
:1023100049F4E092E900C091EB00C5FBCC27C0F97D
:102320001092E900C093F1001092F1008EEF8093BB
:10233000E80081CF8C2F8D7F8130F1F4D230E1F431
:10234000012B09F095CF2E2D2F778FEF820F843040
:1023500008F08ECF8EEF8093E8002093E900C33021
:1023600009F486CF89E18093EB0081E090E001C021
:10237000880F2A95EAF7B6CFEF2809F079CFD13A3E
:1023800009F5C13091F436DE80912F028093F1007F
:102390001092F100E9E2F2E08FE292E021912093C5
:1023A000F1008E179F07D1F7C1CFC23021F422DE92
:1023B00080911801A6CFC33009F05ACF1BDE80915F
:1023C00019019FCFD13209F053CFC93061F4809108
:1023D000E80082FFFCCF8091F100809327028BEF11
:1023E0008093E800A3CFCA3029F41093180110920B
:1023F00028029CCFCB3009F03BCF0093190196CF38
:1024000090913002911102C08FEF08959FB7F89418
:1024100022E02093E9002091E4002E5C32E040911C
:10242000E80045FD0EC09FBF90913002992361F3F3
:102430009091E400921741F39FB7F8943093E9002C
:10244000EECF8093F1006093F1007093F1008AE386
:102450008093E8009FBF80E008956091CB02709167
:10246000CC028091CD029091CE0220E068177907CE
:1024700081F083E0C5DF282F082E000C330B81117B
:1024800008C08091CB029091CC029093CE028093B1
:10249000CD02822F0895EE0FFF1F0590F491E02DDD
:1024A0000994F894FFCFB00DB80DBE0DC40DCA0D40
:1024B000D00DD60DDC0D070E090E0B0E0D0E0F0EF6
:0624C000110E130E150EB3
:1024C6000100000000000000000000000000000005
:0A24D600000000006F01C3017D014A
:00000001FF
